:03000000020EFBF2
:0C0EFB00787FE4F6D8FD758120020B6BB7
:100E8D002020204C55580030313233343536373828
:020E9D0039001A
:100E5700C2A0D2A100D2A200E58020E7FBC2A2AFC8
:020E67008022E7
:030DFB0093F51C51
:100DFE00C2A2A20092A0C2A100851C8000D2A200B5
:060E0E00C2A200020E5713
:0A0F1300C200EF4408F51C020DFEB9
:0A0F1D00C200EF4404F51C020DFEB3
:100D7800C2A2C200751C38120DFEC200751C3812C2
:100D88000DFE7F04120F13C200751C01120DFE7FA9
:040D980002020F1D27
:100DDC00AE07ED700AC200EE4480F51C120DFEBD8C
:0F0DEC00010CC200EE24C04480F51C120DFE2243
:100E1400120A65FF6010D200F51C120DFE74012940
:070E2400F9E43AFA80EA222A
:060F3000120DDC020E149C
:100D9C00E4FDFCC3ED9FEC9E5015E4FBFA0BBB008D
:0F0DAC00010ABA17F8BB70F50DBD00010C80E409
:010DBB002215
:080F27007F01AE071FEE70FA16
:010F2F00229F
:0E0ED0007F607EEAEF1FAC0670011E4C70F6CC
:010EDE0022F1
:0F0EDF00D2B4D2B2120F27C2B4120F27C2B2225E
:100E9F00C2B4D2B2120F27D2B4120F27C2B2020FAE
:010EAF00271B
:100E2B00EF30E004D2B48002C2B4D2B2120F27C2A8
:060E3B00B2D2B4020F2741
:100E4100E4FDD2B4D2B2120F27A2B4E433FD120FE3
:050E510027C2B2AF054D
:010E56002279
:020D5200AD07EB
:100D5400E4FCED30E704D2B48002C2B4120F27D20F
:100D6400B2120F27C2B2120F27ED25E0FD0CBC080A
:040D7400E1020E4149
:100DBC00E4FDD2B4FCD2B2120F27A2B4E433420544
:0F0DCC00C2B2120F27ED25E0FD0CBC08E8AF0501
:010DDB0022F5
:100E6900AB07120EDF7F46120D52AF03120D52026D
:020E79000E9FCA
:100D2900120EDF7F47120D52E4FB120DBC740C2B1F
:100D3900F8A607BB03047F018002E4FF120E2B0B08
:090D4900BB03E7120E9F020ED05D
:0C0F07007F647E00120D9C7F01020E69C9
:100CCB007F01120E697F10120E697FB47E00120D28
:100CDB009C120D29E4FF120E69750A00850C0BE5B9
:100CEB000BFE7C00E4250DF50BEC3EF50AFCAD0B81
:100CFB00E41209AB7B9A7A997999783F1209098F9B
:100D0B001F8E1E8D1D8C1C7F337E337DB37C3FABC2
:0D0D1B001FAA1EA91DA81C1208001209E441
:010D280022A8
:0C0EEE00E4FFE4FE0EBE21FC0FBF0AF67C
:010EFA0022D5
:020EB000AD078C
:0D0EB200E4FCECC39D5006120EEE0C80F522
:010EBF002210
:100E7B00AD071FED600BE4FEEEC3940D50F20E8038
:010E8B00F76F
:010E8C002243
:0F0EC000E4FC7F04120E7BB2B60CBC64F5D2B614
:010ECF002200
:100C2E008F1F8E1E8D1D8C1CD291D290E47FC8FE1C
:100C3E00FDFCAB1FAA1EA91DA81CD3120B5A400403
:100C4E00C2B38002D2B3E47F32FEFDFCAB1FAA1EFC
:100C5E00A91DA81CC3120B5A5004C2B48002D2B4F0
:100C6E0020B30375080120B40375080220B503757F
:100C7E000803E50860417F01120EB020B303750929
:100C8E000120B40375090220B503750903E5086553
:100C9E00097024E508B40107120EC0D290C291E586
:100CAE0008B40207120EC0C290D291E508B4030731
:0D0CBE00120EC0C290C291E4F508F50922A3
:100B6B00120EDF120F07120CCB120CCB8F1B8E1A2F
:100B7B008D198C18E47B0AFAF9F8120ABAAF038FB5
:100B8B0014E47B64FAF9F8AF1BAE1AAD19AC18126A
:100B9B000ABAAC00AD01AE02AF03E47B0AFAF9F876
:100BAB00120ABA8F15E47BE87A03F9F8AF1BAE1A79
:100BBB00AD19AC18120ABAAC00AD01AE02AF03E42A
:100BCB007B64FAF9F8120ABA8F16E47BE87A03F918
:100BDB00F8AF1BAE1AAD19AC18120ABA8F17120D5B
:100BEB0078E4FDFF120DDCD200E517900E94120D88
:100BFB00FBD200E516120DFBD200E51593F51C1286
:100C0B000DFED200E51493F51C120DFE7BFF7A0E40
:100C1B00798D120E14AF1BAE1AAD19AC18120C2E27
:030C2B00020B6B4E
:10080000EC4D6011E8497017ED33EC3304600DE4F2
:10081000FCFFFEFD22E933E8330470F8020A5012AF
:100820000A1B58046009E4CC2481500628500902B0
:100830000A5A284003020A57C0E0EB4A7044B980C4
:1008400006D0E0FB020A46EF4E701CBD8008EBFFAD
:10085000EAFEE9FD80EBE98DF0A4FEE5F00208E98F
:10086000E9CDF9EAFEEBFFEF89F0A4FCE5F0CE89D3
:10087000F0A42EFFE435F0CD89F0A42DFEE435F090
:100880008067EF4E7005BD80D780C3EF8BF0A4ACBE
:10089000F0EE8BF0A42CFCE435F0F8EF8AF0A42CF9
:1008A000E5F038FCE433CB8DF0A42CFCE5F03BF80C
:1008B000EE8AF0A42CFCE5F038F8E433CF89F0A4FC
:1008C0002CFCE5F038CF3400CE89F0A42FFFE5F002
:1008D0003EFEE433C98DF0A42EFEE5F039CD8AF05A
:1008E000A42FFFE5F03EFEE43DFD33D0E0FB5007D2
:1008F0000BBB000F020A5AEC2CFCEF33FFEE33FE69
:06090000ED33FD020A3296
:10090600020A5AEC5D046005E859047003020A50B5
:10091600120A1B580460F6EC4860F2EC7004FDFE07
:10092600FF22C860DB2481C85009C39860025006C4
:10093600020A579850CAF582E9294B4A7005AB82DC
:10094600020A4675F0007C1A7880C3EF9BEE9AED9A
:1009560099400DC3EF9BFFEE9AFEED99FDE842F03C
:10096600DC23ACF0D0E0FFD0E0FED0E0FDAB82208F
:10097600E7101BEB60BAEC2CFCEF33FFEE33FEED19
:1009860033FD020A32E803F830E705C0F075F000DF
:10099600EF2FFFEE33FEED33FD40B830E7C280AAFD
:1009A60075F020800E75F010800575F0087D007ECC
:1009B600007F003392D530D503120B4CEC33401038
:1009C600EF33FFEE33FEED33FDEC33FCD5F0ED22D5
:0E09D600E5F0247EA2D513CC92E7CDCEFF2211
:1009E400EDD2E7CD33EC3392D524814006E4FFFE0B
:1009F400FDFC22FCE4CFCECDCC24E0501174FF806A
:100A0400EDC3CC13CCCD13CDCE13CECF13CF047006
:070A1400F030D5DE020B4CAF
:100A1B00E9D2E7C933E833F892D5EDD2E7CD33EC21
:070A2B0033FC5002B2D5229A
:100A3200EC30E7100FBF000C0EBE00080DBD000425
:100A42000BEB6014A2D5EB13FCED92E7FD2274FFD1
:100A5200FCFDFEFF22E480F8A2D574FF13FC7D802A
:030A6200E480EF3E
:100A6500BB010689828A83E0225002E722BBFE028F
:090A7500E32289828A83E49322C2
:100A7E0075F008758200EF2FFFEE33FECD33CDCC2F
:100A8E0033CCC58233C5829BED9AEC99E5829840B2
:100A9E000CF582EE9BFEED9AFDEC99FC0FD5F0D68F
:100AAE00E4CEFBE4CDFAE4CCF9A88222B800C1B9B9
:100ABE000059BA002DEC8BF084CFCECDFCE5F0CBF7
:100ACE00F97818EF2FFFEE33FEED33FDEC33FCEB30
:100ADE0033FB10D703994004EB99FB0FD8E5E4F9EB
:100AEE00FA227818EF2FFFEE33FEED33FDEC33FCD8
:100AFE00C933C910D7059BE99A4007EC9BFCE99ACC
:100B0E00F90FD8E0E4C9FAE4CCFB2275F010EF2F10
:100B1E00FFEE33FEED33FDCC33CCC833C810D70710
:100B2E009BEC9AE899400AED9BFDEC9AFCE899F84B
:0E0B3E000FD5F0DAE4CDFBE4CCFAE4C8F922DE
:0E0B4C00C3E49FFFE49EFEE49DFDE49CFC22BA
:100B5A00EB9FF5F0EA9E42F0E99D42F0E89C45F0F1
:010B6A002268
:00000001FF
